:020000040800F2
:1000000000800120251000082010000820100008A2
:100010002010000820100008201000080000000038
:100020000000000000000000000000002010000898
:100030002010000800000000201000082010000818
:1000400020100008201000082010000820100008D0
:10005000201000082010000879030008A5030008FC
:10006000D1030008FD03000829040008201000083F
:1000700020100008201000082010000820100008A0
:100080002010000820100008F10600080000000001
:1000900000000000000000000000000055040008FF
:1000A0002010000820100008201000082010000870
:1000B000350800084308000851080008201000080F
:1000C0002010000820100008201000082010000850
:1000D0002010000820100008201000080000000078
:1000E000BD04000880B400AF044B1B68034A43F012
:1000F0000103136000BFBD4680BC7047003802405A
:1001000080B485B000AF0346FB71FB795B09FB73DC
:10011000FB7903F01F03BB73FB7B032B36D801A2D3
:1001200052F823F0350100084B0100086101000876
:1001300077010008184B1B68BA7B012101FA02F213
:100140001146154A0B43136021E0144B1B68BA7B20
:10015000012101FA02F21146104A0B43136016E026
:100160000F4B1B68BA7B012101FA02F211460C4ABF
:100170000B4313600BE00B4B1B68BA7B012101FAA8
:1001800002F21146074A0B43136000E000BF00BFB4
:100190001437BD4680BC70473038024034380240C6
:1001A000403802404438024090B484B000AF044666
:1001B000084611461A462346FB710346BB710B469F
:1001C0007B7113463B71FB79413BFB73FB7B254AFB
:1001D00052F82330BB60BB681B68BA795200032118
:1001E00001FA02F2D2431A40BB681A60BB681B686E
:1001F0007979BA79520001FA02F21A43BB681A609F
:100200007B79002B15D1BB68DB68BA7952000321DA
:1002100001FA02F2D2431A40BB68DA60BB68DB68BD
:100220003979BA79520001FA02F21A43BB68DA60EE
:1002300012E0BB685B68BA79012101FA02F2D2438D
:100240001A40BB685A60BB685B683979BA7901FAB1
:1002500002F21A43BB685A6000BF1037BD4690BC1B
:10026000704700BF0000002080B487B000AF034695
:10027000FB710B46BB7113467B71FB79413BFB75F0
:10028000FB7D1D4A52F823303B61BB79072B15D803
:100290003B691A6ABB799B000F2101FA03F3DB4328
:1002A0001A403B691A623B691A6A7979BB799B00EB
:1002B00001FA03F31A433B691A6217E0BB79083B62
:1002C000FB733B695A6AFB7B9B000F2101FA03F326
:1002D000DB431A403B695A623B695A6A7979FB7B76
:1002E0009B0001FA03F31A433B695A6200BF1C37B3
:1002F000BD4680BC704700BF0000002080B485B0C0
:1003000000AF0346FB710B46BB7113467B710123A3
:10031000FB73FB79413BBB73BB7B164A52F823301E
:10032000BB60BB681B68BA795200032101FA02F274
:100330001A40BB795B0022FA03F3002B14D0BB6890
:100340005B69BA79012101FA02F2D2431A40BB6813
:100350005A61BB685B697979BA7901FA02F21A438A
:10036000BB685A610023FB73FB7B18461437BD46FC
:1003700080BC70470000002080B500AF074B1B68B1
:10038000002B02D0054B1B689847054B5B69044A5C
:1003900043F00103536100BF80BD00BF3000002067
:1003A000003C014080B500AF074B5B68002B02D0DA
:1003B000054B5B689847054B5B69044A43F00203B1
:1003C000536100BF80BD00BF30000020003C0140F1
:1003D00080B500AF074B9B68002B02D0054B9B6894
:1003E0009847054B5B69044A43F00403536100BF1F
:1003F00080BD00BF30000020003C014080B500AF50
:10040000074BDB68002B02D0054BDB689847054B98
:100410005B69044A43F00803536100BF80BD00BF1D
:1004200030000020003C014080B500AF074B1B6945
:10043000002B02D0054B1B699847054B5B69044AAA
:1004400043F01003536100BF80BD00BF30000020A7
:10045000003C014080B582B000AF0523FB7120E075
:10046000144B5B69FA79012101FA02F21340002B67
:1004700014D0FB79104A52F82330002B04D0FB79BA
:100480000D4A52F8233098470A4B5B69FA790121EB
:1004900001FA02F21146074A0B435361FB7901331B
:1004A000FB71FB79092BDBD900BF00BF0837BD46C4
:1004B00080BD00BF003C01403000002080B582B00C
:1004C00000AF0A23FB7120E0144B5B69FA7901212C
:1004D00001FA02F21340002B14D0FB79104A52F8B3
:1004E0002330002B04D0FB790D4A52F82330984773
:1004F0000A4B5B69FA79012101FA02F21146074AB7
:100500000B435361FB790133FB71FB790F2BDBD973
:1005100000BF00BF0837BD4680BD00BF003C0140A2
:100520003000002080B483B000AF0346FB71FB793C
:10053000092B19D81D4B1969FA7913465B0013442E
:10054000072202FA03F3DB43184A0B401361174BEF
:100550001969FA7913465B001344042202FA03F383
:10056000124A0B4313611CE0104BD968FB79A3F1CD
:100570000A0213465B001344072202FA03F3DB432B
:100580000A4A0B40D360094BD968FB79A3F10A02F0
:1005900013465B001344042202FA03F3034A0B439D
:1005A000D36000BF0C37BD4680BC704700200140BF
:1005B00080B483B000AF0346FB710F4B1B680E4A3B
:1005C00023F4403313600D4B5B680C4A23F04073F7
:1005D00053600A4B5A68FB791B06084913434B606A
:1005E000064B9B68054A43F00103936000BF0C373C
:1005F000BD4680BC704700BF04230140002001407D
:1006000080B400AF064B00221A60054B9B68044A79
:1006100043F08043936000BFBD4680BC704700BF7D
:100620000020014080B582B000AF0346FB71194B3A
:100630005B68184A23F480735360164B9B68154A15
:1006400023F002039360134B9B68124A43F48063C8
:100650009360104BDB6A0F4A23F47003D3620D4B97
:100660005B6B0C4A23F01F0353630A4B5A6BFB79F5
:10067000084913434B63FB791846FFF753FF054BBB
:100680009B68044A43F00103936000BF0837BD46EE
:1006900080BD00BF0020014080B582B000AF78600F
:1006A0000D4B00221A600D4B00221A700C4B0022D9
:1006B0001A700C4A7B6813600B4B01221A700B4BAB
:1006C0005B680A4A43F020035360122000F0A4F94B
:1006D00000BF0837BD4680BD7400002078000020B0
:1006E00079000020800000207000002000200140E0
:1006F00080B582B000AF2F4B1B685B0803F001038D
:10070000002B53D02C4B1B78DBB2022B36D12B4B5A
:100710001B78002B2BD02A4B1B68002B27D0294B92
:100720001A78264B1B789A420FD2224BD96C244B55
:100730001A68244B1B785B0013448AB21A80214B41
:100740001B780133DAB21F4B1A701E4B1A781B4B01
:100750001B789A420BD31C4B1B68002B07D01A4BFB
:100760001B68174A12681549097810469847114BBB
:100770009B68104A43F00103936017E00E4B1B780F
:10078000DBB2012B0FD1114B1B68002B0ED0094B94
:10079000DB6CFB80074B00221A600C4B1B68FA884D
:1007A0001046984702E0034B00221A6000BF08374A
:1007B000BD4680BD00200140700000207800002070
:1007C00074000020790000207C00002080000020C0
:1007D00080B584B000AF0346FB71FB79134A52F831
:1007E0002330FB60FB681B6903F00103002B19D069
:1007F000FB6800221A61FB68DB6823F00102FB68DA
:10080000DA60FB681B6823F00102FB681A60FB7961
:10081000074A52F82330002B04D0FB79044A52F8DF
:100820002330984700BF1037BD4680BD1000002020
:100830008400002080B500AF0020FFF7C9FF00BF93
:1008400080BD80B500AF0120FFF7C2FF00BF80BDB3
:1008500080B500AF0220FFF7BBFF00BF80BD0000E6
:1008600090B484B000AF0446084611461A462346A9
:10087000FB710346BB710B46BB8013467B80FB7943
:10088000023B374A52F82330FB60FB6800221A60B3
:10089000BA88FB689A627A88FB68DA62FB68002291
:1008A0005A62BB79022B18D8BB79013BDBB2DB0063
:1008B000BB72FB689A69BB7AFF2101FA03F3DB4341
:1008C0001A40FB689A61FB689A69BB7A682101FA51
:1008D00003F31A43FB689A6117E0BB79033BDBB271
:1008E000DB00FB72FB68DA69FB7AFF2101FA03F394
:1008F000DB431A40FB68DA61FB68DA69FB7A68213E
:1009000001FA03F31A43FB68DA61FB681B6ABA79E0
:10091000013A9200012101FA02F21A43FB681A62BD
:10092000FB6803F13402BB7903F18043013B9B0078
:10093000134400221A60FB681B6843F08002FB68C6
:100940001A60FB685B6943F00102FB685A61FB684F
:1009500000221A6100BF1037BD4690BC704700BF2F
:100960002000002080B487B000AF0346FB710B4627
:10097000BB7113467B71FB79023B124A52F823305C
:100980007B617B79642B01D964237B717B69DB6A92
:100990003B617B793A6902FB03F30B4AA2FB032319
:1009A0005B09FB607B6903F13402BB7903F180438F
:1009B000013B9B001344FA681A6000BF1C37BD4618
:1009C00080BC7047200000201F85EB5180B485B0AB
:1009D00000AF03460A46FB711346BB71FB79023B2D
:1009E0000C4A52F82330FB60FB681B6ABA79013A63
:1009F0009200012101FA02F21A43FB681A62FB68B5
:100A00001B6843F00102FB681A6000BF1437BD4643
:100A100080BC70472000002080B483B000AF034644
:100A2000FB71FB7903F01F030749FA795209D2B22F
:100A30001046012202FA03F341F8203000BF0C37C0
:100A4000BD4680BC704700BF00E100E080B485B0C7
:100A500000AF78600023FB6003E000BFFB68013358
:100A6000FB60FB687A689A42F7D800BF00BF143772
:100A7000BD4680BC704780B582B000AF0346FB71B5
:100A8000FB7903F00103DBB21A4602214220FFF793
:100A900035FCFB795B08DBB203F00103DBB21A46DD
:100AA0000A214220FFF72AFCFB799B08DBB203F006
:100AB0000103DBB21A460C214220FFF71FFCFB7931
:100AC000DB08DBB203F00103DBB21A460D21422042
:100AD000FFF714FC012201214220FFF70FFC4FF425
:100AE0001670FFF7B3FF002201214220FFF706FC3A
:100AF0004FF49660FFF7AAFF00BF0837BD4680BDE0
:100B000080B582B000AF03460A46FB711346BB7145
:100B1000FB791A4600214220FFF7F0FBBB791B0945
:100B2000DBB21846FFF7A7FFBB7903F00F03DBB278
:100B30001846FFF7A0FF00BF0837BD4680BD000084
:100B400080B500AF0023012200214220FFF72CFBDB
:100B50000023012201214220FFF726FB002301226E
:100B600002214220FFF720FB002301220A2142201C
:100B7000FFF71AFB002301220C214220FFF714FB90
:100B8000002301220D214220FFF70EFB1D48FFF735
:100B90005DFF002200214220FFF7B0FB002201216F
:100BA0004220FFF7ABFB0320FFF765FF49F640400B
:100BB000FFF74CFF0320FFF75EFF42F6E060FFF710
:100BC00045FF0320FFF757FF42F6E060FFF73EFFC7
:100BD0000220FFF750FF28210020FFF791FF0C2192
:100BE0000020FFF78DFF06210020FFF789FF01217C
:100BF0000020FFF785FF4EF66020FFF727FF00BFBC
:100C000080BD00BFC0D4010080B500AF012100202D
:100C1000FFF776FF4EF66020FFF718FF00BF80BD9C
:100C200080B584B000AF03460A46FB711346BB7122
:100C3000BB7903F00F03FB73FB79012B02D1FB7B24
:100C40004033FB73FB7B63F07F03DBB2194600206C
:100C5000FFF756FF00BF1037BD4680BD80B582B09C
:100C600000AF0346FB71FB7919460120FFF748FFEF
:100C700000BF0837BD4680BD80B582B000AF786048
:100C800007E07B681B781846FFF7E8FF7B680133B5
:100C90007B607B68002B03D07B681B78002BF0D136
:100CA00000BF0837BD4680BD80B582B000AF0346A7
:100CB000FB80044AFB881380FFF7A2FC00BF0837C3
:100CC000BD4680BD9400002080B485B000AF786040
:100CD0000023FB6003E000BFFB680133FB607B681F
:100CE0004FF4FA6202FB03F3FA689A42F3D300BFAF
:100CF00000BF1437BD4680BC7047000080B487B089
:100D000000AFF860B96011461A460B46FB711346F6
:100D1000BB710023FB75FB68002B22D1FB7D5A1CA5
:100D2000FA751A46BB68134430221A7028E0F96835
:100D30002D4BA3FB0123DA0813469B0013445B00F1
:100D4000CA1AD2B2FB7D591CF9751946BB680B440F
:100D50003032D2B21A70FB68234AA2FB0323DB08AD
:100D6000FB60FB68002B0BD0FB7D092BDFD907E074
:100D7000FB7D5A1CFA751A46BB681344BA791A707F
:100D8000FA7DFB799A42F3D3FB7DBA6813440022C3
:100D90001A700023BB751AE0BB7DBA6813441B7838
:100DA0007B75FA7DBB7DD31A013BBA681A44BB7DC3
:100DB000B9680B4412781A70FA7DBB7DD31A013BD7
:100DC000BA6813447A7D1A70BB7D0133BB75FB7D15
:100DD0005B08DBB2BA7D9A42DED300BF00BF1C378E
:100DE000BD4680BC704700BFCDCCCCCC80B58AB0AE
:100DF00000AFFFF777F90020FFF782F90120FFF736
:100E00007FF90220FFF77CF94120FFF779F968208C
:100E1000FFF776F9FFF794FEFFF7F6FE00230122B5
:100E20000D214320FFF7C0F900220D214320FFF7D9
:100E300065FA0023022206214120FFF7B5F90222BC
:100E400006214120FFF710FA40F2CF739F220121C3
:100E50000320FFF705FD002201210320FFF782FD9B
:100E600001210320FFF7B2FD0023032200214120CE
:100E7000FFF79AF90020FFF79BFB0020FFF7D2FB5A
:100E80005F48FFF709FCFFF7BBFB002387F827301B
:100E900000233B62002387F826305A4B1B889BB205
:100EA000FB61FB694FF4A57203FB02F2564BA3FBF7
:100EB0000213D21A52081344DB0A3B6297F8273018
:100EC000022B44D0022B56DC002B02D0012B16D073
:100ED00051E0002387F8263000220D214320FFF740
:100EE0000DFA3B6A272B03D9022387F8273046E007
:100EF0003B6A182B43D9012387F827303FE00022B3
:100F00000D214320FFF7FAF93B6A272B03D902236F
:100F100087F8273036E03B6A182B06D8002387F87D
:100F20002730002387F826302CE03B6A1D2B03D89E
:100F3000212387F8263025E03B6A222B03D8422361
:100F400087F826301EE0642387F826301AE06423F1
:100F500087F8263001220D214320FFF7CFF93B6AA5
:100F6000272B0ED8012387F8273000220D2143209C
:100F7000FFF7C4F905E0002387F8273002E000BF3F
:100F800000E000BF97F826301A4601210320FFF742
:100F9000E9FC00210020FFF743FE1C48FFF76CFE30
:100FA00007F1100120230022386AFFF7A7FE07F19E
:100FB00010031846FFF760FE1548FFF75DFE00219D
:100FC0000120FFF72DFE97F82730022B03D111489F
:100FD000FFF752FE10E01048FFF74EFE97F826008C
:100FE000391D20230022FFF789FE3B1D1846FFF71D
:100FF00043FE0A48FFF740FE1E20FFF765FE4CE760
:10100000A90C000894000020010110006C100008D9
:10101000741000087C100008901000089810000858
:10102000FEE70000DFF82CD00B480C490C4A0023E7
:1010300002E0D458C4500433C4188C42F9D3094890
:101040000949002201E0026004308842FBD3FFF727
:10105000CDFEFEE7008001200000002030000020CF
:10106000AC100008300000209600002054656D7020
:101070003A20000020432020202020004F564552D7
:10108000484541542120202020202020000000003D
:1010900046616E3A200000002520202020202020DC
:0C10A00020000000F8B500BFF8B500BF4C
:1010AC00000002400004024000080240000C024014
:1010BC00000000400004004000080040000C00400C
:1010CC00000000400004004000080040000C0040FC
:0400000508001025BA
:00000001FF
